{"abi":[{"type":"constructor","inputs":[{"name":"_resolver","type":"address","internalType":"address"}],"stateMutability":"nonpayable"},{"type":"function","name":"bondCount","inputs":[],"outputs":[{"name":"","type":"uint256","internalType":"uint256"}],"stateMutability":"view"},{"type":"function","name":"bonds","inputs":[{"name":"","type":"uint256","internalType":"uint256"}],"outputs":[{"name":"depositor","type":"address","internalType":"address"},{"name":"beneficiary","type":"address","internalType":"address"},{"name":"amount","type":"uint256","internalType":"uint256"},{"name":"intentKey","type":"uint256","internalType":"uint256"},{"name":"settled","type":"bool","internalType":"bool"}],"stateMutability":"view"},{"type":"function","name":"claimBond","inputs":[{"name":"id","type":"uint256","internalType":"uint256"}],"outputs":[],"stateMutability":"nonpayable"},{"type":"function","name":"createBond","inputs":[{"name":"beneficiary","type":"address","internalType":"address"},{"name":"intentKey","type":"uint256","internalType":"uint256"}],"outputs":[{"name":"id","type":"uint256","internalType":"uint256"}],"stateMutability":"payable"},{"type":"function","name":"lastCaller","inputs":[],"outputs":[{"name":"","type":"address","internalType":"address"}],"stateMutability":"view"},{"type":"function","name":"resolver","inputs":[],"outputs":[{"name":"","type":"address","internalType":"address"}],"stateMutability":"view"},{"type":"function","name":"returnBond","inputs":[{"name":"id","type":"uint256","internalType":"uint256"}],"outputs":[],"stateMutability":"nonpayable"},{"type":"function","name":"splitBond","inputs":[{"name":"id","type":"uint256","internalType":"uint256"},{"name":"depositorBps","type":"uint256","internalType":"uint256"}],"outputs":[],"stateMutability":"nonpayable"}],"bytecode":{"object":"0x608060405234801561000f575f5ffd5b506040516109a53803806109a5833981810160405281019061003191906100d4565b805f5f6101000a81548173ffffffffffffffffffffffffffffffffffffffff021916908373ffffffffffffffffffffffffffffffffffffffff160217905550506100ff565b5f5ffd5b5f73ffffffffffffffffffffffffffffffffffffffff82169050919050565b5f6100a38261007a565b9050919050565b6100b381610099565b81146100bd575f5ffd5b50565b5f815190506100ce816100aa565b92915050565b5f602082840312156100e9576100e8610076565b5b5f6100f6848285016100c0565b91505092915050565b6108998061010c5f395ff3fe60806040526004361061007a575f3560e01c80632113522a1161004d5780632113522a146101285780635f1c17c0146101525780638b260104146101925780638edd4d24146101ba5761007a565b806304f3bcec1461007e578063071d764d146100a85780631c08c08e146100d05780631cb6eae8146100f8575b5f5ffd5b348015610089575f5ffd5b506100926101e4565b60405161009f91906105c3565b60405180910390f35b3480156100b3575f5ffd5b506100ce60048036038101906100c99190610613565b610208565b005b3480156100db575f5ffd5b506100f660048036038101906100f19190610651565b610278565b005b610112600480360381019061010d91906106a6565b6102e7565b60405161011f91906106f3565b60405180910390f35b348015610133575f5ffd5b5061013c61046e565b60405161014991906105c3565b60405180910390f35b34801561015d575f5ffd5b5061017860048036038101906101739190610651565b610493565b604051610189959493929190610726565b60405180910390f35b34801561019d575f5ffd5b506101b860048036038101906101b39190610651565b61050f565b005b3480156101c5575f5ffd5b506101ce61057e565b6040516101db91906106f3565b60405180910390f35b5f5f9054906101000a900473ffffffffffffffffffffffffffffffffffffffff1681565b3360015f6101000a81548173ffffffffffffffffffffffffffffffffffffffff021916908373ffffffffffffffffffffffffffffffffffffffff160217905550600160025f8481526020019081526020015f206004015f6101000a81548160ff0219169083151502179055505050565b3360015f6101000a81548173ffffffffffffffffffffffffffffffffffffffff021916908373ffffffffffffffffffffffffffffffffffffffff160217905550600160025f8381526020019081526020015f206004015f6101000a81548160ff02191690831515021790555050565b5f5f341161032a576040517f08c379a0000000000000000000000000000000000000000000000000000000008152600401610321906107d1565b60405180910390fd5b60035f81548092919061033c9061081c565b9190505590506040518060a001604052803373ffffffffffffffffffffffffffffffffffffffff1681526020018473ffffffffffffffffffffffffffffffffffffffff1681526020013481526020018381526020015f151581525060025f8381526020019081526020015f205f820151815f015f6101000a81548173ffffffffffffffffffffffffffffffffffffffff021916908373ffffffffffffffffffffffffffffffffffffffff1602179055506020820151816001015f6101000a81548173ffffffffffffffffffffffffffffffffffffffff021916908373ffffffffffffffffffffffffffffffffffffffff16021790555060408201518160020155606082015181600301556080820151816004015f6101000a81548160ff02191690831515021790555090505092915050565b60015f9054906101000a900473ffffffffffffffffffffffffffffffffffffffff1681565b6002602052805f5260405f205f91509050805f015f9054906101000a900473ffffffffffffffffffffffffffffffffffffffff1690806001015f9054906101000a900473ffffffffffffffffffffffffffffffffffffffff1690806002015490806003015490806004015f9054906101000a900460ff16905085565b3360015f6101000a81548173ffffffffffffffffffffffffffffffffffffffff021916908373ffffffffffffffffffffffffffffffffffffffff160217905550600160025f8381526020019081526020015f206004015f6101000a81548160ff02191690831515021790555050565b60035481565b5f73ffffffffffffffffffffffffffffffffffffffff82169050919050565b5f6105ad82610584565b9050919050565b6105bd816105a3565b82525050565b5f6020820190506105d65f8301846105b4565b92915050565b5f5ffd5b5f819050919050565b6105f2816105e0565b81146105fc575f5ffd5b50565b5f8135905061060d816105e9565b92915050565b5f5f60408385031215610629576106286105dc565b5b5f610636858286016105ff565b9250506020610647858286016105ff565b9150509250929050565b5f60208284031215610666576106656105dc565b5b5f610673848285016105ff565b91505092915050565b610685816105a3565b811461068f575f5ffd5b50565b5f813590506106a08161067c565b92915050565b5f5f604083850312156106bc576106bb6105dc565b5b5f6106c985828601610692565b92505060206106da858286016105ff565b9150509250929050565b6106ed816105e0565b82525050565b5f6020820190506107065f8301846106e4565b92915050565b5f8115159050919050565b6107208161070c565b82525050565b5f60a0820190506107395f8301886105b4565b61074660208301876105b4565b61075360408301866106e4565b61076060608301856106e4565b61076d6080830184610717565b9695505050505050565b5f82825260208201905092915050565b7f6d757374206465706f73697400000000000000000000000000000000000000005f82015250565b5f6107bb600c83610777565b91506107c682610787565b602082019050919050565b5f6020820190508181035f8301526107e8816107af565b9050919050565b7f4e487b71000000000000000000000000000000000000000000000000000000005f52601160045260245ffd5b5f610826826105e0565b91507fffffffffffffffffffffffffffffffffffffffffffffffffffffffffffffffff8203610858576108576107ef565b5b60018201905091905056fea26469706673582212202de8cb228faa1601a17af65ab8abf81ff9969cd7ad664963c17dc367ebc5549964736f6c634300081e0033","linkReferences":{}},"methodIdentifiers":{"bondCount()":"8edd4d24","bonds(uint256)":"5f1c17c0","claimBond(uint256)":"1c08c08e","createBond(address,uint256)":"1cb6eae8","lastCaller()":"2113522a","resolver()":"04f3bcec","returnBond(uint256)":"8b260104","splitBond(uint256,uint256)":"071d764d"},"id":0}