{"abi":[{"type":"constructor","inputs":[{"name":"_resolver","type":"address","internalType":"address"}],"stateMutability":"nonpayable"},{"type":"function","name":"bondCount","inputs":[],"outputs":[{"name":"","type":"uint256","internalType":"uint256"}],"stateMutability":"view"},{"type":"function","name":"bonds","inputs":[{"name":"","type":"uint256","internalType":"uint256"}],"outputs":[{"name":"depositor","type":"address","internalType":"address"},{"name":"beneficiary","type":"address","internalType":"address"},{"name":"amount","type":"uint256","internalType":"uint256"},{"name":"intentKey","type":"uint256","internalType":"uint256"},{"name":"settled","type":"bool","internalType":"bool"}],"stateMutability":"view"},{"type":"function","name":"claimBond","inputs":[{"name":"id","type":"uint256","internalType":"uint256"}],"outputs":[],"stateMutability":"nonpayable"},{"type":"function","name":"createBond","inputs":[{"name":"beneficiary","type":"address","internalType":"address"},{"name":"intentKey","type":"uint256","internalType":"uint256"}],"outputs":[{"name":"id","type":"uint256","internalType":"uint256"}],"stateMutability":"payable"},{"type":"function","name":"resolver","inputs":[],"outputs":[{"name":"","type":"address","internalType":"address"}],"stateMutability":"view"},{"type":"function","name":"returnBond","inputs":[{"name":"id","type":"uint256","internalType":"uint256"}],"outputs":[],"stateMutability":"nonpayable"},{"type":"function","name":"splitBond","inputs":[{"name":"id","type":"uint256","internalType":"uint256"},{"name":"depositorBps","type":"uint256","internalType":"uint256"}],"outputs":[],"stateMutability":"nonpayable"},{"type":"event","name":"BondCreated","inputs":[{"name":"id","type":"uint256","indexed":true,"internalType":"uint256"},{"name":"depositor","type":"address","indexed":false,"internalType":"address"},{"name":"beneficiary","type":"address","indexed":false,"internalType":"address"},{"name":"amount","type":"uint256","indexed":false,"internalType":"uint256"},{"name":"intentKey","type":"uint256","indexed":false,"internalType":"uint256"}],"anonymous":false},{"type":"event","name":"BondSettled","inputs":[{"name":"id","type":"uint256","indexed":true,"internalType":"uint256"},{"name":"action","type":"string","indexed":false,"internalType":"string"},{"name":"recipient","type":"address","indexed":false,"internalType":"address"},{"name":"amount","type":"uint256","indexed":false,"internalType":"uint256"}],"anonymous":false}],"bytecode":{"object":"0x608060405234801561000f575f5ffd5b506040516113d63803806113d6833981810160405281019061003191906100d4565b805f5f6101000a81548173ffffffffffffffffffffffffffffffffffffffff021916908373ffffffffffffffffffffffffffffffffffffffff160217905550506100ff565b5f5ffd5b5f73ffffffffffffffffffffffffffffffffffffffff82169050919050565b5f6100a38261007a565b9050919050565b6100b381610099565b81146100bd575f5ffd5b50565b5f815190506100ce816100aa565b92915050565b5f602082840312156100e9576100e8610076565b5b5f6100f6848285016100c0565b91505092915050565b6112ca8061010c5f395ff3fe60806040526004361061006f575f3560e01c80631cb6eae81161004d5780631cb6eae8146100ed5780635f1c17c01461011d5780638b2601041461015d5780638edd4d24146101855761006f565b806304f3bcec14610073578063071d764d1461009d5780631c08c08e146100c5575b5f5ffd5b34801561007e575f5ffd5b506100876101af565b6040516100949190610c1c565b60405180910390f35b3480156100a8575f5ffd5b506100c360048036038101906100be9190610c6c565b6101d3565b005b3480156100d0575f5ffd5b506100eb60048036038101906100e69190610caa565b610506565b005b61010760048036038101906101029190610cff565b61074f565b6040516101149190610d4c565b60405180910390f35b348015610128575f5ffd5b50610143600480360381019061013e9190610caa565b610914565b604051610154959493929190610d7f565b60405180910390f35b348015610168575f5ffd5b50610183600480360381019061017e9190610caa565b610990565b005b348015610190575f5ffd5b50610199610bd7565b6040516101a69190610d4c565b60405180910390f35b5f5f9054906101000a900473ffffffffffffffffffffffffffffffffffffffff1681565b8160015f8281526020019081526020015f205f015f9054906101000a900473ffffffffffffffffffffffffffffffffffffffff1673ffffffffffffffffffffffffffffffffffffffff163373ffffffffffffffffffffffffffffffffffffffff16148061028b57505f5f9054906101000a900473ffffffffffffffffffffffffffffffffffffffff1673ffffffffffffffffffffffffffffffffffffffff163373ffffffffffffffffffffffffffffffffffffffff16145b6102ca576040517f08c379a00000000000000000000000000000000000000000000000000000000081526004016102c190610e2a565b60405180910390fd5b61271082111561030f576040517f08c379a000000000000000000000000000000000000000000000000000000000815260040161030690610e92565b60405180910390fd5b5f60015f8581526020019081526020015f209050806004015f9054906101000a900460ff1615610374576040517f08c379a000000000000000000000000000000000000000000000000000000000815260040161036b90610efa565b60405180910390fd5b6001816004015f6101000a81548160ff0219169083151502179055505f6127108483600201546103a49190610f45565b6103ae9190610fb3565b90505f8183600201546103c19190610fe3565b90505f82111561043257825f015f9054906101000a900473ffffffffffffffffffffffffffffffffffffffff1673ffffffffffffffffffffffffffffffffffffffff166108fc8390811502906040515f60405180830381858888f19350505050158015610430573d5f5f3e3d5ffd5b505b5f8111156104a257826001015f9054906101000a900473ffffffffffffffffffffffffffffffffffffffff1673ffffffffffffffffffffffffffffffffffffffff166108fc8290811502906040515f60405180830381858888f193505050501580156104a0573d5f5f3e3d5ffd5b505b857f2a3b7ae49ba67183310c16d60bd1fb9aca2004d58e43216347af4e54e2f83b7f845f015f9054906101000a900473ffffffffffffffffffffffffffffffffffffffff16846040516104f6929190611060565b60405180910390a2505050505050565b8060015f8281526020019081526020015f205f015f9054906101000a900473ffffffffffffffffffffffffffffffffffffffff1673ffffffffffffffffffffffffffffffffffffffff163373ffffffffffffffffffffffffffffffffffffffff1614806105be57505f5f9054906101000a900473ffffffffffffffffffffffffffffffffffffffff1673ffffffffffffffffffffffffffffffffffffffff163373ffffffffffffffffffffffffffffffffffffffff16145b6105fd576040517f08c379a00000000000000000000000000000000000000000000000000000000081526004016105f490610e2a565b60405180910390fd5b5f60015f8481526020019081526020015f209050806004015f9054906101000a900460ff1615610662576040517f08c379a000000000000000000000000000000000000000000000000000000000815260040161065990610efa565b60405180910390fd5b6001816004015f6101000a81548160ff021916908315150217905550806001015f9054906101000a900473ffffffffffffffffffffffffffffffffffffffff1673ffffffffffffffffffffffffffffffffffffffff166108fc826002015490811502906040515f60405180830381858888f193505050501580156106e8573d5f5f3e3d5ffd5b50827f2a3b7ae49ba67183310c16d60bd1fb9aca2004d58e43216347af4e54e2f83b7f826001015f9054906101000a900473ffffffffffffffffffffffffffffffffffffffff1683600201546040516107429291906110e4565b60405180910390a2505050565b5f5f3411610792576040517f08c379a000000000000000000000000000000000000000000000000000000000815260040161078990611168565b60405180910390fd5b60025f8154809291906107a490611186565b9190505590506040518060a001604052803373ffffffffffffffffffffffffffffffffffffffff1681526020018473ffffffffffffffffffffffffffffffffffffffff1681526020013481526020018381526020015f151581525060015f8381526020019081526020015f205f820151815f015f6101000a81548173ffffffffffffffffffffffffffffffffffffffff021916908373ffffffffffffffffffffffffffffffffffffffff1602179055506020820151816001015f6101000a81548173ffffffffffffffffffffffffffffffffffffffff021916908373ffffffffffffffffffffffffffffffffffffffff16021790555060408201518160020155606082015181600301556080820151816004015f6101000a81548160ff021916908315150217905550905050807f705335767fd6ea89d4d03c93acd6f97f61063a93ee4abdc96e65f85db125d0863385348660405161090694939291906111cd565b60405180910390a292915050565b6001602052805f5260405f205f91509050805f015f9054906101000a900473ffffffffffffffffffffffffffffffffffffffff1690806001015f9054906101000a900473ffffffffffffffffffffffffffffffffffffffff1690806002015490806003015490806004015f9054906101000a900460ff16905085565b8060015f8281526020019081526020015f205f015f9054906101000a900473ffffffffffffffffffffffffffffffffffffffff1673ffffffffffffffffffffffffffffffffffffffff163373ffffffffffffffffffffffffffffffffffffffff161480610a4857505f5f9054906101000a900473ffffffffffffffffffffffffffffffffffffffff1673ffffffffffffffffffffffffffffffffffffffff163373ffffffffffffffffffffffffffffffffffffffff16145b610a87576040517f08c379a0000000000000000000000000000000000000000000000000000000008152600401610a7e90610e2a565b60405180910390fd5b5f60015f8481526020019081526020015f209050806004015f9054906101000a900460ff1615610aec576040517f08c379a0000000000000000000000000000000000000000000000000000000008152600401610ae390610efa565b60405180910390fd5b6001816004015f6101000a81548160ff021916908315150217905550805f015f9054906101000a900473ffffffffffffffffffffffffffffffffffffffff1673ffffffffffffffffffffffffffffffffffffffff166108fc826002015490811502906040515f60405180830381858888f19350505050158015610b71573d5f5f3e3d5ffd5b50827f2a3b7ae49ba67183310c16d60bd1fb9aca2004d58e43216347af4e54e2f83b7f825f015f9054906101000a900473ffffffffffffffffffffffffffffffffffffffff168360020154604051610bca92919061125a565b60405180910390a2505050565b60025481565b5f73ffffffffffffffffffffffffffffffffffffffff82169050919050565b5f610c0682610bdd565b9050919050565b610c1681610bfc565b82525050565b5f602082019050610c2f5f830184610c0d565b92915050565b5f5ffd5b5f819050919050565b610c4b81610c39565b8114610c55575f5ffd5b50565b5f81359050610c6681610c42565b92915050565b5f5f60408385031215610c8257610c81610c35565b5b5f610c8f85828601610c58565b9250506020610ca085828601610c58565b9150509250929050565b5f60208284031215610cbf57610cbe610c35565b5b5f610ccc84828501610c58565b91505092915050565b610cde81610bfc565b8114610ce8575f5ffd5b50565b5f81359050610cf981610cd5565b92915050565b5f5f60408385031215610d1557610d14610c35565b5b5f610d2285828601610ceb565b9250506020610d3385828601610c58565b9150509250929050565b610d4681610c39565b82525050565b5f602082019050610d5f5f830184610d3d565b92915050565b5f8115159050919050565b610d7981610d65565b82525050565b5f60a082019050610d925f830188610c0d565b610d9f6020830187610c0d565b610dac6040830186610d3d565b610db96060830185610d3d565b610dc66080830184610d70565b9695505050505050565b5f82825260208201905092915050565b7f21617574686f72697a65640000000000000000000000000000000000000000005f82015250565b5f610e14600b83610dd0565b9150610e1f82610de0565b602082019050919050565b5f6020820190508181035f830152610e4181610e08565b9050919050565b7f6d617820313030303000000000000000000000000000000000000000000000005f82015250565b5f610e7c600983610dd0565b9150610e8782610e48565b602082019050919050565b5f6020820190508181035f830152610ea981610e70565b9050919050565b7f616c726561647920736574746c656400000000000000000000000000000000005f82015250565b5f610ee4600f83610dd0565b9150610eef82610eb0565b602082019050919050565b5f6020820190508181035f830152610f1181610ed8565b9050919050565b7f4e487b71000000000000000000000000000000000000000000000000000000005f52601160045260245ffd5b5f610f4f82610c39565b9150610f5a83610c39565b9250828202610f6881610c39565b91508282048414831517610f7f57610f7e610f18565b5b5092915050565b7f4e487b71000000000000000000000000000000000000000000000000000000005f52601260045260245ffd5b5f610fbd82610c39565b9150610fc883610c39565b925082610fd857610fd7610f86565b5b828204905092915050565b5f610fed82610c39565b9150610ff883610c39565b92508282039050818111156110105761100f610f18565b5b92915050565b7f73706c69740000000000000000000000000000000000000000000000000000005f82015250565b5f61104a600583610dd0565b915061105582611016565b602082019050919050565b5f6060820190508181035f8301526110778161103e565b90506110866020830185610c0d565b6110936040830184610d3d565b9392505050565b7f636c61696d0000000000000000000000000000000000000000000000000000005f82015250565b5f6110ce600583610dd0565b91506110d98261109a565b602082019050919050565b5f6060820190508181035f8301526110fb816110c2565b905061110a6020830185610c0d565b6111176040830184610d3d565b9392505050565b7f6d757374206465706f73697400000000000000000000000000000000000000005f82015250565b5f611152600c83610dd0565b915061115d8261111e565b602082019050919050565b5f6020820190508181035f83015261117f81611146565b9050919050565b5f61119082610c39565b91507fffffffffffffffffffffffffffffffffffffffffffffffffffffffffffffffff82036111c2576111c1610f18565b5b600182019050919050565b5f6080820190506111e05f830187610c0d565b6111ed6020830186610c0d565b6111fa6040830185610d3d565b6112076060830184610d3d565b95945050505050565b7f72657475726e00000000000000000000000000000000000000000000000000005f82015250565b5f611244600683610dd0565b915061124f82611210565b602082019050919050565b5f6060820190508181035f83015261127181611238565b90506112806020830185610c0d565b61128d6040830184610d3d565b939250505056fea2646970667358221220ddbc1577328a9e6576525f9c9acc4adb1ffa026b306597cf028dae07f7f8655064736f6c634300081e0033","linkReferences":{}},"methodIdentifiers":{"bondCount()":"8edd4d24","bonds(uint256)":"5f1c17c0","claimBond(uint256)":"1c08c08e","createBond(address,uint256)":"1cb6eae8","resolver()":"04f3bcec","returnBond(uint256)":"8b260104","splitBond(uint256,uint256)":"071d764d"},"id":0}